:100000000C942A000C9489000C9447000C9447002F
:100010000C9447000C9447000C9447000C94C600C5
:100020000C9447000C9447000C9447000C94470034
:100030000C9447000C942E010C9457010C9447002B
:100040000C9447000C9447000C9447000C94470014
:100050000C94470011241FBECFE5D8E0DEBFCDBF12
:1000600010E0A0E6B0E0ECE0F8E002C005900D92F0
:10007000A236B107D9F720E0A2E6B0E001C01D9298
:10008000A33BB207E1F70E9449000C9404040C94CE
:10009000000080E881BB8FEF84BBAA9A87E690E0DE
:1000A0000E947C018EB58D608EBD85B7836085BF53
:1000B0008BB780648BBF89B7806189BF8AE196E086
:1000C0009BBD8ABD789485B5876085BD85B5806404
:1000D00085BD85B5806385BD8FE383BDC1E716E02F
:1000E000D5E009C00E949201C82F0E94AD0180E6B0
:1000F00090E00E94BE010E94CD01892B99F79C2FB0
:100100009F7D963411F4D5BBF6CF9234A1F715BB81
:10011000F2CF1F920F920FB60F9211248F939F93DD
:10012000AF93BF93839914C080916A0090916B0044
:10013000A0916C00B0916D000197A109B109809365
:100140006A0090936B00A0936C00B0936D0015C093
:10015000839B13C080916A0090916B00A0916C000A
:10016000B0916D000196A11DB11D80936A0090931E
:100170006B00A0936C00B0936D00BF91AF919F9105
:100180008F910F900FBE0F901F9018951F920F9296
:100190000FB60F9211242F933F934F935F936F935A
:1001A0007F938F939F93AF93BF93EF93FF93609150
:1001B0006A0070916B0080916C0090916D000E94BC
:1001C000AE0220E030E040EA51E40E940402609375
:1001D0006200709363008093640090936500609167
:1001E000620070916300809164009091650020E04E
:1001F00030E040E752E40E943A030E9476026093A6
:100200006600709367008093680090936900809106
:10021000660090916700A0916800B09169000E940B
:10022000DA0180E690E00E94BE0110926A0010920E
:100230006B0010926C0010926D00FF91EF91BF91D6
:10024000AF919F918F917F916F915F914F913F916E
:100250002F910F900FBE0F901F9018951F920F9225
:100260000FB60F9211242F938F939F93EF93FF93C9
:100270008BB12CB18871E0917000EF5FEF719091BC
:100280006F00E91739F0E0937000F0E0ED58FF4F90
:10029000208301C082E080936E00FF91EF919F91D7
:1002A0008F912F910F900FBE0F901F9018951F9256
:1002B0000F920FB60F9211248F939F93EF93FF939A
:1002C0009091720080917100981761F0E091710037
:1002D000EF5FEF71E0937100F0E0ED56FF4F80812A
:1002E0008CB901C05598FF91EF919F918F910F901C
:1002F0000FBE0F901F90189510927200109271000F
:100300001092700010926F0099231CF422E02BB918
:100310009F7790BD89B988E98AB986E880BD86E073
:1003200080BD08959091700080916F00981791F0B2
:10033000E0916F00EF5FEF71E0936F00F0E0ED5838
:10034000FF4F208180916E0090E0982F8827820FC8
:10035000911D089580E091E00895209172002F5F33
:100360002F71909171002917E1F3E22FF0E0ED5623
:10037000FF4F808320937200559A0895CF93DF93A7
:10038000EC018881882331F021960E94AD0189918A
:100390008111FBCFDF91CF91089580917000209162
:1003A0006F0090E04F96821B91096FE170E00E9410
:1003B000A70308950F931F93CF93DF93CDB7DEB7B5
:1003C0002F970FB6F894DEBF0FBECDBF4AE0BE0137
:1003D0006F5F7F4F0E94CF038981882351F08E0188
:1003E0000E5F1F4F0E94AD01F80181918F018111B5
:1003F000F9CF2F960FB6F894DEBF0FBECDBFDF91B9
:10040000CF911F910F9108950E9418020C94000340
:100410000E94F90258F00E94F20240F029F45F3F76
:1004200029F00C94E90251110C9434030C94EF025E
:100430000E94110368F39923B1F3552391F3951B9F
:10044000550BBB27AA2762177307840738F09F5FF5
:100450005F4F220F331F441FAA1FA9F335D00E2E62
:100460003AF0E0E832D091505040E695001CCAF7CF
:100470002BD0FE2F29D0660F771F881FBB1F261792
:1004800037074807AB07B0E809F0BB0B802DBF0169
:10049000FF2793585F4F3AF09E3F510578F00C9438
:1004A000E9020C9434035F3FE4F3983ED4F386955D
:1004B00077956795B795F7959F5FC9F7880F911D59
:1004C0009695879597F90895E1E0660F771F881F45
:1004D000BB1F621773078407BA0720F0621B730BF8
:1004E000840BBA0BEE1F88F7E09508950E947D02F9
:1004F0006894B1110C94340308950E94190388F094
:100500009F5798F0B92F9927B751B0F0E1F0660FD7
:10051000771F881F991F1AF0BA95C9F714C0B13018
:1005200091F00E943303B1E008950C943303672FD8
:10053000782F8827B85F39F0B93FCCF38695779547
:100540006795B395D9F73EF4909580957095619530
:100550007F4F8F4F9F4F0895E89409C097FB3EF45B
:1005600090958095709561957F4F8F4F9F4F992300
:10057000A9F0F92F96E9BB279395F695879577957E
:100580006795B795F111F8CFFAF4BB0F11F460FF3E
:100590001BC06F5F7F4F8F4F9F4F16C0882311F096
:1005A00096E911C0772321F09EE8872F762F05C0AA
:1005B000662371F096E8862F70E060E02AF09A9545
:1005C000660F771F881FDAF7880F9695879597F93A
:1005D000089597F99F6780E870E060E008959FEFC5
:1005E00080EC089500240A941616170618060906CA
:1005F000089500240A941216130614060506089599
:10060000092E0394000C11F4882352F0BB0F40F420
:10061000BF2B11F460FF04C06F5F7F4F8F4F9F4F60
:10062000089557FD9058440F551F59F05F3F71F0E2
:100630004795880F97FB991F61F09F3F79F0879549
:100640000895121613061406551FF2CF4695F1DFD2
:1006500008C0161617061806991FF1CF8695710562
:10066000610508940895E894BB2766277727CB0196
:1006700097F908950E944D030C9400030E94F20222
:1006800038F00E94F90220F0952311F00C94E90251
:100690000C94EF0211240C9434030E94110370F3A4
:1006A000959FC1F3950F50E0551F629FF001729F17
:1006B000BB27F00DB11D639FAA27F00DB11DAA1F26
:1006C000649F6627B00DA11D661F829F2227B00D73
:1006D000A11D621F739FB00DA11D621F839FA00DFE
:1006E000611D221F749F3327A00D611D231F849F4E
:1006F000600D211D822F762F6A2F11249F575040A5
:100700009AF0F1F088234AF0EE0FFF1FBB1F661F1F
:10071000771F881F91505040A9F79E3F510580F0E8
:100720000C94E9020C9434035F3FE4F3983ED4F355
:10073000869577956795B795F795E7959F5FC1F78C
:10074000FE2B880F911D9695879597F9089597FB35
:10075000072E16F4009407D077FD09D00E94BB0342
:1007600007FC05D03EF4909581959F4F08957095B4
:1007700061957F4F0895AA1BBB1B51E107C0AA1FBB
:10078000BB1FA617B70710F0A61BB70B881F991F32
:100790005A95A9F780959095BC01CD010895BB2786
:1007A0004A3031F4992322F4BDE2909581959F4F10
:1007B0000C94DB03BB27FB015527AA27880F991F41
:1007C000AA1FA41710F0A41B83955051B9F7A05D80
:1007D000AA3308F0A95DA193009779F7B111B193FD
:1007E0001192CB010C94F403DC01FC01672F719191
:1007F0007723E1F7329704C07C916D937083629107
:0C080000AE17BF07C8F30895F894FFCFAF
:02080C000D00DD
:00000001FF
