S01400006E756D656272636F756E74742E73726563EA
S11300000C942A000C9434000C9434000C943400A6
S11300100C9434000C9434000C9434000C9434008C
S11300200C9434000C9434000C9434000C9434007C
S11300300C9434000C9434000C9434000C9434006C
S11300400C9434000C9434000C9434000C9434005C
S11300500C94340011241FBECFE5D8E0DEBFCDBF21
S11300600E9436000C9482020C940000EFEF3E2FA5
S1130070AB01475F5F4FCB0121B32F6321BB22B399
S11300802F6322BB2FEFA9E6F8E12150A040F040F6
S1130090E1F700C0000022B3207C22BB2FEFA9E6C9
S11300A0F8E12150A040F040E1F700C0000021B386
S11300B0266021BB22B3266022BB2FEFA9E6F8E11C
S11300C02150A040F040E1F700C0000022B3297F96
S11300D022BB2FEFA9E6F8E12150A040F040E1F760
S11300E000C0000021B32B6521BB22B32B6522BBCA
S11300F02FEFA9E6F8E12150A040F040E1F700C05D
S1130100000022B3247A22BB2FEFA9E6F8E12150A4
S1130110A040F040E1F700C0000021B32F6421BBF0
S113012022B32F6422BB2FEFA9E6F8E12150A040AF
S1130130F040E1F700C0000022B3207B22BB2FEF88
S1130140A9E6F8E12150A040F040E1F700C000002A
S113015021B32E6621BB22B32E6622BB2FEFA9E664
S1130160F8E12150A040F040E1F700C0000022B3C4
S1130170217922BB2FEFA9E6F8E12150A040F040FD
S1130180E1F700C0000021B32D6621BB22B32D6628
S113019022BB2FEFA9E6F8E12150A040F040E1F79F
S11301A000C0000022B3227922BB2FEFA9E6F8E1B8
S11301B02150A040F040E1F700C0000021B32D67BA
S11301C021BB22B32D6722BB2FEFA9E6F8E1215012
S11301D0A040F040E1F700C0000022B3227822BB27
S11301E02FEFA9E6F8E12150A040F040E1F700C06C
S11301F0000021B3276021BB22B3276022BB2FEF6D
S1130200A9E6F8E12150A040F040E1F700C0000069
S113021022B3287F22BB2FEFA9E6F8E12150A040AA
S1130220F040E1F700C0000021B331BB22B332BB80
S11302302FEFA9E6F8E12150A040F040E1F700C01B
S1130240000022B312BA2FEFA9E6F8E12150A04032
S1130250F040E1F700C0000021B32F6E21BB22B3B0
S11302602F6E22BB2FEFA9E6F8E12150A040F04009
S1130270E1F700C0000022B3207122BB2FEFA9E6F2
S1130280F8E12150A040F040E1F700C0000022B3A3
S11302902F6E22BB0196E1F424B32F6324BB25B354
S11302A02F6325BB2FEFA9E6F8E12150A040F040D1
S11302B0E1F700C0000025B3207C25BB2FEFA9E6A1
S11302C0F8E12150A040F040E1F700C000003EC03A
S11302D081309105E1F424B3266024BB25B3266064
S11302E025BB2FEFA9E6F8E12150A040F040E1F74B
S11302F000C0000025B3297F25BB2FEFA9E6F8E154
S11303002150A040F040E1F700C000003EC0823020
S11303109105E1F424B32B6524BB25B32B6525BBE0
S11303202FEFA9E6F8E12150A040F040E1F700C02A
S1130330000025B3247A25BB2FEFA9E6F8E121506C
S1130340A040F040E1F700C000003EC083309105BA
S1130350E1F424B32F6424BB25B32F6425BB2FEF12
S1130360A9E6F8E12150A040F040E1F700C0000008
S113037025B3207B25BB2FEFA9E6F8E12150A0404F
S1130380F040E1F700C000003EC084309105E1F484
S113039024B32E6624BB25B32E6625BB2FEFA9E616
S11303A0F8E12150A040F040E1F700C0000025B37F
S11303B0217925BB2FEFA9E6F8E12150A040F040B8
S11303C0E1F700C000003EC085309105E1F424B39C
S11303D02D6624BB25B32D6625BB2FEFA9E6F8E1D6
S11303E02150A040F040E1F700C0000025B322797D
S11303F025BB2FEFA9E6F8E12150A040F040E1F73A
S113040000C000003EC086309105E1F424B32D679E
S113041024BB25B32D6725BB2FEFA9E6F8E12150B6
S1130420A040F040E1F700C0000025B3227825BBCE
S11304302FEFA9E6F8E12150A040F040E1F700C019
S113044000003BC087309105E1F424B3276024BB4E
S113045025B3276025BB2FEFA9E6F8E12150A04082
S1130460F040E1F700C0000025B3287F25BB2FEF43
S1130470A9E6F8E12150A040F040E1F700C00000F7
S11304803AC088309105C9F424B3E4BB25B3E5BB75
S11304902FEFA9E6F8E12150A040F040E1F700C0B9
S11304A0000025B315BA2FEFA9E6F8E12150A040CA
S11304B0F040E1F700C000001EC089309105D9F476
S11304C024B32F6E24BB25B32F6E25BB2FEFA9E6D3
S11304D0F8E12150A040F040E1F700C0000025B34E
S11304E0207125BB2FEFA9E6F8E12150A040F04090
S11304F0E1F700C000008417950709F0BDCD675FE0
S10B05007F4FB6CDF894FFCF44
S9030000FC
