:100000000C942A000C943F000C943F000C943F0089
:100010000C943F000C943F000C943F000C943F0064
:100020000C943F000C943F000C943F000C943F0054
:100030000C943F000C943F000C943F000C943F0044
:100040000C943F000C943F000C943F000C943F0034
:100050000C943F0011241FBECFE5D8E0DEBFCDBF1A
:1000600010E0A0E6B0E0E0E3F9E002C005900D92F8
:10007000A438B107D9F70E9441000C9496040C945F
:100080000000CF93DF93CDB7DEB72C970FB6F8946F
:10009000DEBF0FBECDBFCE0101960E94960040E6A6
:1000A00050E064E670E0CE0101960E94970008E6F9
:1000B00010E02CE630E040E750E064E770E0CE016D
:1000C00001960E94EF00CE0101960E94970161E621
:1000D000CE0101960E949A01FACFCF93DF93CDB75C
:1000E000DEB72B970FB6F894DEBF0FBECDBF9BE0F7
:1000F000E8E7F0E0DE01119601900D929A95E1F7A4
:10010000FE013B9699E002C0915030F022912813F5
:10011000FBCF89E0891B01C08FEF2B960FB6F894B7
:10012000DEBF0FBECDBFDF91CF9108950895DF925E
:10013000EF92FF920F931F93CF93DF937C018B017C
:10014000EA01FB013196DB012C91222399F080E03A
:100150008F5F91919111FCCF833061F4FE01319654
:10016000D880DD2039F080E08F5F91919111FCCF34
:10017000833011F00E949104203531F4F80182811E
:100180000E946D008F3F11F40E949104F0E5DF1290
:1001900005C08A810E946D008F3F11F40E94910476
:1001A000D80111968C911197F701808312968C914A
:1001B0000E946D00D70116968C931697898111962F
:1001C0008C938A810E946D00F701878380E0DF9124
:1001D000CF911F910F91FF90EF90DF9008957F9244
:1001E0008F929F92AF92BF92CF92DF92EF92FF9247
:1001F0000F931F93CF93DF93EC015B016A017901A9
:10020000FB013196DB019C919923D9F080E08F5F4F
:1002100021912111FCCF8330A1F4F6013196D60152
:100220009C90992071F080E08F5F21912111FCCF8B
:10023000833039F4F7013196D7018C90811003C0D7
:1002400016C00E94910480E08F5F21912111FCCFA4
:10025000833069F4F8013196D8017C90772039F029
:1002600080E08F5F21912111FCCF833011F00E943B
:100270009104903531F4F50182810E946D008F3F29
:1002800011F40E949104F0E59F1207C0D601129666
:100290008C910E946D008F3F11F40E949104B0E593
:1002A0008B1206C0F70182810E946D008F3F11F40E
:1002B0000E949104F0E57F1207C0D80112968C913C
:1002C0000E946D008F3F11F40E949104F50181811D
:1002D0008A8382810E946D008887D60111968C9155
:1002E00011978B8312968C910E946D008987F7017C
:1002F00081818C8382810E946D008A87D80111964A
:100300008C9111978D8312968C910E946D008B8732
:1003100080E0DF91CF911F910F91FF90EF90DF90E0
:10032000CF90BF90AF909F908F907F9008950E9444
:10033000680308959C01862FB9010E9477040895EF
:10034000CF93DF93DC0111969C9111979154892FE3
:10035000880F980FEBE3F0E0EF01C91BD10921E012
:1003600030E0C90117960C90179702C0880F991FAB
:100370000A94E2F79881892B888385E08A95F1F7C2
:10038000000011969C9111979154892F880F980F16
:10039000E91BF10917960C9002C0220F331F0A9433
:1003A000E2F7209580812823208380E0DF91CF91A0
:1003B00008951F93CF93DF93182FEB018823ACF49C
:1003C0008D818154982F990F890FEBE3F0E0E81BA2
:1003D000F10981E090E00B8402C0880F991F0A9414
:1003E000E2F79081892B808315C08D818154982FED
:1003F000990F890FEBE3F0E0E81BF10981E090E051
:100400000B8402C0880F991F0A94E2F780959081AF
:100410008923808316FF15C08C818154982F990FF2
:10042000890FEBE3F0E0E81BF10981E090E00A843A
:1004300002C0880F991F0A94E2F79081892B80836C
:1004400015C08C818154982F990F890FEBE3F0E050
:10045000E81BF10981E090E00A8402C0880F991F2F
:100460000A94E2F7809590818923808315FF15C057
:100470008B818154982F990F890FEBE3F0E0E81BF3
:10048000F10981E090E0098402C0880F991F0A9465
:10049000E2F79081892B808315C08B818154982F3E
:1004A000990F890FEBE3F0E0E81BF10981E090E0A0
:1004B000098402C0880F991F0A94E2F78095908101
:1004C0008923808314FF15C08A818154982F990F46
:1004D000890FEBE3F0E0E81BF10981E090E008848C
:1004E00002C0880F991F0A94E2F79081892B8083BC
:1004F00015C08A818154982F990F890FEBE3F0E0A2
:10050000E81BF10981E090E0088402C0880F991F80
:100510000A94E2F78095908189238083CE010E941E
:10052000A00113FF15C08D818154982F990F890F59
:10053000EBE3F0E0E81BF10981E090E00B8402C0FE
:10054000880F991F0A94E2F79081892B808315C048
:100550008D818154982F990F890FEBE3F0E0E81B10
:10056000F10981E090E00B8402C0880F991F0A9482
:10057000E2F7809590818923808312FF15C08C81DA
:100580008154982F990F890FEBE3F0E0E81BF109F4
:1005900081E090E00A8402C0880F991F0A94E2F774
:1005A0009081892B808315C08C818154982F990F5D
:1005B000890FEBE3F0E0E81BF10981E090E00A84A9
:1005C00002C0880F991F0A94E2F7809590818923D1
:1005D000808311FF15C08B818154982F990F890F4B
:1005E000EBE3F0E0E81BF10981E090E0098402C050
:1005F000880F991F0A94E2F79081892B808315C098
:100600008B818154982F990F890FEBE3F0E0E81B61
:10061000F10981E090E0098402C0880F991F0A94D3
:10062000E2F7809590818923808310FF15C08A812D
:100630008154982F990F890FEBE3F0E0E81BF10943
:1006400081E090E0088402C0880F991F0A94E2F7C5
:100650009081892B808315C08A818154982F990FAE
:10066000890FEBE3F0E0E81BF10981E090E00884FA
:1006700002C0880F991F0A94E2F780959081892320
:100680008083CE010E94A00185EC8A95F1F70000DD
:1006900080E0DF91CF911F910895DB019C919154EF
:1006A000292F220F920FEBE3F0E0E91BF10921E083
:1006B00030E016960C9002C0220F331F0A94E2F726
:1006C00020959081292320830E94D90180E00895FC
:1006D000CF93DF93EC0188818154982F990F890F74
:1006E0002AE330E0F901E81BF10981E090E0AC0178
:1006F0000E8002C0440F551F0A94E2F75081452B2B
:10070000408349814154542F550F450FF901E41B93
:10071000F109AC010F8002C0440F551F0A94E2F7A3
:100720005081452B40834A814154542F550F450F2A
:10073000F901E41BF109AC01088402C0440F551F04
:100740000A94E2F75081452B40834B814154542F4A
:10075000550F450FF901E41BF109AC01098402C0F2
:10076000440F551F0A94E2F75081452B40834C817A
:100770004154542F550F450FF901E41BF109AC0109
:100780000A8402C0440F551F0A94E2F75081452B9A
:1007900040834D814154542F550F450FF901E41BFF
:1007A000F1099C010B8402C0220F331F0A94E2F767
:1007B0003081232B208328812154422F440F420F64
:1007C0002BE330E0F901E41BF109AC010E8002C01B
:1007D000440F551F0A94E2F740955081452340830A
:1007E00049814154542F550F450FF901E41BF1097C
:1007F000AC010F8002C0440F551F0A94E2F74095E8
:100800005081452340834A814154542F550F450F51
:10081000F901E41BF109AC01088402C0440F551F23
:100820000A94E2F740955081452340834B8141541F
:10083000542F550F450FF901E41BF109AC01098450
:1008400002C0440F551F0A94E2F74095508145239A
:1008500040834C814154542F550F450FF901E41B3F
:10086000F109AC010A8402C0440F551F0A94E2F753
:1008700040955081452340834D814154542F550F5D
:10088000450FF901E41BF1090B8402C0880F991F81
:100890000A94E2F780959081892380838FE39CE915
:1008A0000197F1F700C00000BE0182E00E944D03F5
:1008B00090ED9A95F1F7BE0188E20E944D03BE01CA
:1008C00081E00E944D038FE39FE10197F1F700C0A3
:1008D0000000BE018EE00E944D038FE39FE101976F
:1008E000F1F700C0000080E0DF91CF910895DB01B7
:1008F0009C919154292F220F920FEBE3F0E0E91B1A
:10090000F10921E030E016960C9002C0220F331F4F
:100910000A94E2F79081292B20830E94D90180E07C
:10092000089581E090E0F8940C949604F894FFCF39
:100930005043360050433700504332005043330099
:10094000504334005043350039383736353433326C
:040950003130000042
:00000001FF
