:100000000C942A000C9447000C9447000C94470071
:100010000C9447000C9447000C9447000C94470044
:100020000C9447000C9447000C9447000C94470034
:100030000C9447000C9447000C9447000C94470024
:100040000C9469000C9447000C9447000C944700F2
:100050000C94470011241FBECFE5D8E0DEBFCDBF12
:1000600010E0A0E6B0E0EEE0F0E102C005900D92F5
:10007000AA39B107D9F720E0AAE9B0E001C01D9282
:10008000AC39B207E1F70E947D000C9405080C948E
:1000900000003E9A86B18F6886B980E0089597B1D6
:1000A000907E97B997B1892B87B980E0089585B77D
:1000B0008F78806185BF85B7806885BF369A7894D0
:1000C000889585B78F7785BF80919A0090919B0026
:1000D00008951F920F920FB60F9211248F939F9342
:1000E00084B195B190939B0080939A009F918F91DA
:1000F0000F900FBE0F901F901895CF93DF93CDB741
:10010000DEB762970FB6F894DEBF0FBECDBF2FEFFC
:1001100081EE94E0215080409040E1F700C0000063
:100120008D9A81B3886181BB0E94690180E49FE15F
:100130000E94F90062E380E00E940B01949A939878
:1001400063E6CE0101960E9446040E94490080E0C9
:100150000E944F0060E670E0CE0101960E946A04A2
:10016000E12CF12C0E9457008C018E159F05D1F3D4
:1001700040E06BE0CE0101960E9480046CE670E0E6
:10018000CE0101960E946A044AE0BE01635F7F4F80
:10019000C8010E94D00740E06BE0CE0101960E94AA
:1001A0008004BE01635F7F4FCE0101960E946A0406
:1001B000B80180E090E00E941F0220E030E040E8BB
:1001C0005AE30E94AD0220E030E048EC52E40E9485
:1001D000AD020E94F00180E00E940B012FEF80E74A
:1001E00092E0215080409040E1F700C0000078018B
:1001F000B9CF8B37910510F48BE790E09C0140E07C
:1002000050E060E072E18AE790E00E948A0737BD23
:1002100026BD80E00895CF92DF92EF92FF92CF93B8
:10022000DF93882319F0813001F13DC0C6B5D7B501
:1002300070E080E090E00E941F0220E030E048EC97
:1002400052E40E947E016B017C01BE0180E090E0DF
:100250000E941F029B01AC01C701B6010E94AD02C2
:100260000E94F0017BBD6ABD1EC0C6B5D7B570E067
:1002700080E090E00E941F0220E030E048EC52E471
:100280000E947E016B017C01BE0180E090E00E9433
:100290001F029B01AC01C701B6010E94AD020E9482
:1002A000F00179BD68BD80E0DF91CF91FF90EF90C4
:1002B000DF90CF900895882319F0813029F007C08E
:1002C0008FB580688FBD03C08FB580628FBD80E021
:1002D00008958FB58FBD8EB580618EBD80E00E9480
:1002E0005B0188EE93E097BD86BD62E380E00E94EB
:1002F0000B018EB581608EBD80E008950E94920151
:100300000C9473020E946C0258F00E94650240F047
:1003100029F45F3F29F00C945C0251110C94A70260
:100320000C9462020E94840268F39923B1F355236E
:1003300091F3951B550BBB27AA27621773078407F8
:1003400038F09F5F5F4F220F331F441FAA1FA9F38E
:1003500035D00E2E3AF0E0E832D091505040E6957C
:10036000001CCAF72BD0FE2F29D0660F771F881FDD
:10037000BB1F261737074807AB07B0E809F0BB0BD0
:10038000802DBF01FF2793585F4F3AF09E3F5105E4
:1003900078F00C945C020C94A7025F3FE4F3983E63
:1003A000D4F3869577956795B795F7959F5FC9F7CD
:1003B000880F911D9695879597F90895E1E0660F4E
:1003C000771F881FBB1F621773078407BA0720F0C7
:1003D000621B730B840BBA0BEE1F88F7E095089530
:1003E0000E948C0288F09F5798F0B92F9927B75137
:1003F000B0F0E1F0660F771F881F991F1AF0BA95C9
:10040000C9F714C0B13091F00E94A602B1E008957E
:100410000C94A602672F782F8827B85F39F0B93F70
:10042000CCF3869577956795B395D9F73EF490957B
:100430008095709561957F4F8F4F9F4F0895E894F9
:1004400009C097FB3EF490958095709561957F4F1C
:100450008F4F9F4F9923A9F0F92F96E9BB279395CA
:10046000F695879577956795B795F111F8CFFAF4DA
:10047000BB0F11F460FF1BC06F5F7F4F8F4F9F4F0B
:1004800016C0882311F096E911C0772321F09EE869
:10049000872F762F05C0662371F096E8862F70E0CF
:1004A00060E02AF09A95660F771F881FDAF7880FA9
:1004B0009695879597F9089597F99F6780E870E07A
:1004C00060E008959FEF80EC089500240A941616CA
:1004D000170618060906089500240A941216130632
:1004E000140605060895092E0394000C11F48823C0
:1004F00052F0BB0F40F4BF2B11F460FF04C06F5FDC
:100500007F4F8F4F9F4F089557FD9058440F551FB1
:1005100059F05F3F71F04795880F97FB991F61F085
:100520009F3F79F087950895121613061406551FFC
:10053000F2CF4695F1DF08C0161617061806991F68
:10054000F1CF86957105610508940895E894BB275D
:1005500066277727CB0197F908950E94C0020C9473
:1005600073020E94650238F00E946C0220F095230D
:1005700011F00C945C020C94620211240C94A702FA
:100580000E94840270F3959FC1F3950F50E0551FB0
:10059000629FF001729FBB27F00DB11D639FAA27D8
:1005A000F00DB11DAA1F649F6627B00DA11D661F27
:1005B000829F2227B00DA11D621F739FB00DA11D48
:1005C000621F839FA00D611D221F749F3327A00D02
:1005D000611D231F849F600D211D822F762F6A2F9E
:1005E00011249F5750409AF0F1F088234AF0EE0F03
:1005F000FF1FBB1F661F771F881F91505040A9F730
:100600009E3F510580F00C945C020C94A7025F3F62
:10061000E4F3983ED4F3869577956795B795F7956B
:10062000E7959F5FC1F7FE2B880F911D96958795E3
:1006300097F90895CF93DF93CDB7DEB72B970FB619
:10064000F894DEBF0FBECDBF9BE0E2E7F0E0DE0135
:10065000119601900D929A95E1F7FE013B9699E073
:1006600002C0915030F022912813FBCF89E0891B02
:1006700001C08FEF2B960FB6F894DEBF0FBECDBF33
:10068000DF91CF910895DF92EF92FF920F931F9326
:10069000CF93DF937C018B01EA01FB013196DB01F3
:1006A0002C91222399F080E08F5F91919111FCCFE2
:1006B000833061F4FE013196D880DD2039F080E08E
:1006C0008F5F91919111FCCF833011F00E94CB0785
:1006D000203531F4F80182810E941A038F3F11F412
:1006E0000E94CB07F0E5DF1205C08A810E941A0341
:1006F0008F3F11F40E94CB07D80111968C9111976E
:10070000F701808312968C910E941A03D7011696E6
:100710008C931697898111968C938A810E941A0373
:10072000F701878380E0DF91CF911F910F91FF90B8
:10073000EF90DF9008957F928F929F92AF92BF9239
:10074000CF92DF92EF92FF920F931F93CF93DF939D
:10075000EC015B016A017901FB013196DB019C919F
:100760009923D9F080E08F5F21912111FCCF833054
:10077000A1F4F6013196D6019C90992071F080E0A9
:100780008F5F21912111FCCF833039F4F70131962D
:10079000D7018C90811003C016C00E94CB0780E067
:1007A0008F5F21912111FCCF833069F4F8013196DC
:1007B000D8017C90772039F080E08F5F2191211162
:1007C000FCCF833011F00E94CB07903531F4F50156
:1007D00082810E941A038F3F11F40E94CB07F0E53B
:1007E0009F1207C0D60112968C910E941A038F3F68
:1007F00011F40E94CB07B0E58B1206C0F70182818D
:100800000E941A038F3F11F40E94CB07F0E57F127C
:1008100007C0D80112968C910E941A038F3F11F4E1
:100820000E94CB07F50181818A8382810E941A038D
:100830008887D60111968C9111978B8312968C9193
:100840000E941A038987F70181818C8382810E942B
:100850001A038A87D80111968C9111978D8312966D
:100860008C910E941A038B8780E0DF91CF911F91BA
:100870000F91FF90EF90DF90CF90BF90AF909F903F
:100880008F907F9008950E94500608950F931F93B4
:10089000CF93DF93EC014DE750E061E870E00E94F8
:1008A000430305E810E029E830E04DE850E061E955
:1008B00070E0CE010E949B03CE010E944304DF91B1
:1008C000CF911F910F9108959C01862FB9010E942D
:1008D0005F0708950F931F93CF93DF93EB01688118
:1008E000662341F08C012196C8010E94640469913D
:1008F0006111FACF80E0DF91CF911F910F910895A0
:100900009C01862F642FA9010E94790780E0089539
:10091000CF93DF93DC0111969C9111979154892F0D
:10092000880F980FEBE3F0E0EF01C91BD10921E03C
:1009300030E0C90117960C90179702C0880F991FD5
:100940000A94E2F79881892B888385E08A95F1F7EC
:10095000000011969C9111979154892F880F980F40
:10096000E91BF10917960C9002C0220F331F0A945D
:10097000E2F7209580812823208380E0DF91CF91CA
:1009800008951F93CF93DF93182FEB018823ACF4C6
:100990008D818154982F990F890FEBE3F0E0E81BCC
:1009A000F10981E090E00B8402C0880F991F0A943E
:1009B000E2F79081892B808315C08D818154982F17
:1009C000990F890FEBE3F0E0E81BF10981E090E07B
:1009D0000B8402C0880F991F0A94E2F780959081DA
:1009E0008923808316FF15C08C818154982F990F1D
:1009F000890FEBE3F0E0E81BF10981E090E00A8465
:100A000002C0880F991F0A94E2F79081892B808396
:100A100015C08C818154982F990F890FEBE3F0E07A
:100A2000E81BF10981E090E00A8402C0880F991F59
:100A30000A94E2F7809590818923808315FF15C081
:100A40008B818154982F990F890FEBE3F0E0E81B1D
:100A5000F10981E090E0098402C0880F991F0A948F
:100A6000E2F79081892B808315C08B818154982F68
:100A7000990F890FEBE3F0E0E81BF10981E090E0CA
:100A8000098402C0880F991F0A94E2F7809590812B
:100A90008923808314FF15C08A818154982F990F70
:100AA000890FEBE3F0E0E81BF10981E090E00884B6
:100AB00002C0880F991F0A94E2F79081892B8083E6
:100AC00015C08A818154982F990F890FEBE3F0E0CC
:100AD000E81BF10981E090E0088402C0880F991FAB
:100AE0000A94E2F78095908189238083CE010E9449
:100AF000880413FF15C08D818154982F990F890F99
:100B0000EBE3F0E0E81BF10981E090E00B8402C028
:100B1000880F991F0A94E2F79081892B808315C072
:100B20008D818154982F990F890FEBE3F0E0E81B3A
:100B3000F10981E090E00B8402C0880F991F0A94AC
:100B4000E2F7809590818923808312FF15C08C8104
:100B50008154982F990F890FEBE3F0E0E81BF1091E
:100B600081E090E00A8402C0880F991F0A94E2F79E
:100B70009081892B808315C08C818154982F990F87
:100B8000890FEBE3F0E0E81BF10981E090E00A84D3
:100B900002C0880F991F0A94E2F7809590818923FB
:100BA000808311FF15C08B818154982F990F890F75
:100BB000EBE3F0E0E81BF10981E090E0098402C07A
:100BC000880F991F0A94E2F79081892B808315C0C2
:100BD0008B818154982F990F890FEBE3F0E0E81B8C
:100BE000F10981E090E0098402C0880F991F0A94FE
:100BF000E2F7809590818923808310FF15C08A8158
:100C00008154982F990F890FEBE3F0E0E81BF1096D
:100C100081E090E0088402C0880F991F0A94E2F7EF
:100C20009081892B808315C08A818154982F990FD8
:100C3000890FEBE3F0E0E81BF10981E090E0088424
:100C400002C0880F991F0A94E2F78095908189234A
:100C50008083CE010E94880485EC8A95F1F700001C
:100C600080E0DF91CF911F910895DB019C91915419
:100C7000292F220F920FEBE3F0E0E91BF10921E0AD
:100C800030E016960C9002C0220F331F0A94E2F750
:100C900020959081292320830E94C10480E008953B
:100CA000CF93DF93EC0188818154982F990F890F9E
:100CB0002AE330E0F901E81BF10981E090E0AC01A2
:100CC0000E8002C0440F551F0A94E2F75081452B55
:100CD000408349814154542F550F450FF901E41BBE
:100CE000F109AC010F8002C0440F551F0A94E2F7CE
:100CF0005081452B40834A814154542F550F450F55
:100D0000F901E41BF109AC01088402C0440F551F2E
:100D10000A94E2F75081452B40834B814154542F74
:100D2000550F450FF901E41BF109AC01098402C01C
:100D3000440F551F0A94E2F75081452B40834C81A4
:100D40004154542F550F450FF901E41BF109AC0133
:100D50000A8402C0440F551F0A94E2F75081452BC4
:100D600040834D814154542F550F450FF901E41B29
:100D7000F1099C010B8402C0220F331F0A94E2F791
:100D80003081232B208328812154422F440F420F8E
:100D90002BE330E0F901E41BF109AC010E8002C045
:100DA000440F551F0A94E2F7409550814523408334
:100DB00049814154542F550F450FF901E41BF109A6
:100DC000AC010F8002C0440F551F0A94E2F7409512
:100DD0005081452340834A814154542F550F450F7C
:100DE000F901E41BF109AC01088402C0440F551F4E
:100DF0000A94E2F740955081452340834B8141544A
:100E0000542F550F450FF901E41BF109AC0109847A
:100E100002C0440F551F0A94E2F7409550814523C4
:100E200040834C814154542F550F450FF901E41B69
:100E3000F109AC010A8402C0440F551F0A94E2F77D
:100E400040955081452340834D814154542F550F87
:100E5000450FF901E41BF1090B8402C0880F991FAB
:100E60000A94E2F780959081892380838FE39CE93F
:100E70000197F1F700C00000BE0182E00E94350634
:100E800090ED9A95F1F7BE0188E20E943506BE0109
:100E900081E00E9435068FE39FE10197F1F700C0E2
:100EA0000000BE018EE00E9435068FE39FE10197AE
:100EB000F1F700C0000080E0DF91CF910895DB01E1
:100EC0009C919154292F220F920FEBE3F0E0E91B44
:100ED000F10921E030E016960C9002C0220F331F7A
:100EE0000A94E2F79081292B20830E94C10480E0BC
:100EF0000895E62FF0E0EB56FF4F9081BA01890F7D
:100F00000E9435068FE39FE10197F1F700C00000D2
:100F100080E00895052E97FB1EF400940E94A1071F
:100F200057FD07D00E94A90707FC03D04EF40C948C
:100F3000A10750954095309521953F4F4F4F5F4FFA
:100F4000089590958095709561957F4F8F4F9F4F35
:100F50000895A1E21A2EAA1BBB1BFD010DC0AA1FFA
:100F6000BB1FEE1FFF1FA217B307E407F50720F012
:100F7000A21BB30BE40BF50B661F771F881F991F8D
:100F80001A9469F760957095809590959B01AC01D6
:100F9000BD01CF01089581E090E0F8940C9405081C
:100FA000BB274A3031F4992322F4BDE29095819514
:100FB0009F4F0C94DC07BB27FB015527AA27880FFE
:100FC000991FAA1FA41710F0A41B83955051B9F7BD
:100FD000A05DAA3308F0A95DA193009779F7B1113C
:100FE000B1931192CB010C94F507DC01FC01672F42
:100FF00071917723E1F7329704C07C916D937083F0
:0E1000006291AE17BF07C8F30895F894FFCFB2
:10100E004144432056616C75653A20002020202013
:10101E0020003938373635343332313000504336CC
:10102E000050433700504332005043330050433496
:0A103E00005043350080C094D40038
:00000001FF
