:100000000C942A000C9447000C9447000C94470071
:100010000C9449010C9447000C9447000C94470041
:100020000C9447000C9447000C9447000C94470034
:100030000C9447000C9447000C9447000C94470024
:100040000C9447000C9447000C9447000C94470014
:100050000C94470011241FBECFE5D8E0DEBFCDBF12
:1000600010E0A0E6B0E0E2E3F3E002C005900D92FC
:10007000AA36B107D9F720E0AAE6B0E001C01D9288
:10008000A237B207E1F70E9449000C9497010C9443
:1000900000008FE085BD8CE983BD80E889BF78943E
:1000A0008FEF8ABB87BB18BA8FE38BBB2AE030E0A7
:1000B000E1E040E080916E0090916F00CC976CF091
:1000C00010926F0010926E0080916C0090916D0004
:1000D000019690936D0080936C0080916C009091DC
:1000E0006D00CC976CF010926D0010926C008091B6
:1000F0007000909171000196909371008093700050
:1001000080917000909171008D3091053CF0E093EA
:100110007000409371008E2F942F03C08A30910598
:10012000A4F4DC01A05ABF4F8C9188BBD9988FE111
:100130009EE40197F1F700C00000D99A8091700009
:10014000909171008A30910524F1B9010E946F01EC
:10015000DB01A05ABF4F8C9188BBD8988FE19EE4F9
:100160000197F1F700C00000D89A8091700090913B
:100170007100B9010E946F01DC01A05ABF4F8C9140
:1001800088BBD9988FE19EE40197F1F700C0000089
:10019000D99A80916C0090916D008A309105A4F4F9
:1001A000DC01A05ABF4F8C9188BBDB988FE19EE4A5
:1001B0000197F1F700C00000DB9A80916C009091EC
:1001C0006D008A30910524F1B9010E946F01DB01B5
:1001D000A05ABF4F8C9188BBDA988FE19EE40197BB
:1001E000F1F700C00000DA9A80916C0090916D00E8
:1001F000B9010E946F01DC01A05ABF4F8C9188BBEE
:10020000DB988FE19EE40197F1F700C00000DB9AD4
:1002100080916E0090916F008A309105ACF4DC0102
:10022000A05ABF4F8C9188BBDD988FE19EE4019767
:10023000F1F700C00000DD9A80916E0090916F0090
:100240008A3091050CF436CFB9010E946F01DB01B1
:10025000A05ABF4F8C9188BBDC988FE19EE4019738
:10026000F1F700C00000DC9A80916E0090916F0061
:10027000B9010E946F01DC01A05ABF4F8C9188BB6D
:10028000DD988FE19EE40197F1F700C00000DD9A50
:1002900011CF1F920F920FB60F9211248F939F933D
:1002A00080916A0090916B00019690936B0080930F
:1002B0006A00019769F480916E0090916F00019639
:1002C00090936F0080936E0010926B0010926A0002
:1002D0009F918F910F900FBE0F901F90189597FBD5
:1002E000072E16F4009407D077FD09D00E948301F1
:1002F00007FC05D03EF4909581959F4F0895709529
:1003000061957F4F0895AA1BBB1B51E107C0AA1F2F
:10031000BB1FA617B70710F0A61BB70B881F991FA6
:100320005A95A9F780959095BC01CD010895F89450
:02033000FFCFFD
:0A0332003F065B4F666D7D077F6F8D
:00000001FF
