:100000000C942A000C9468000C9447000C94470050
:100010000C9447000C9447000C9447000C94470044
:100020000C9447000C9447000C9447000C94470034
:100030000C9447000C94A5000C94CE000C9447003F
:100040000C9447000C9447000C9447000C94470014
:100050000C94470011241FBECFE5D8E0DEBFCDBF12
:1000600010E0A0E6B0E0E0E1F3E002C005900D9200
:10007000A436B107D9F720E0A4E6B0E001C01D9294
:10008000AD3AB207E1F70E9449000C9486010C9446
:10009000000080E881BB87E690E00E94F3008EB507
:1000A0008D608EBD85B7836085BF8BB780648BBF45
:1000B00078948091640090916500A0916600B09161
:1000C00067000E94270180E690E00E941801F1CFAE
:1000D0001F920F920FB60F9211248F939F93AF939D
:1000E000BF93839914C08091640090916500A091A2
:1000F0006600B09167000197A109B109809364007F
:1001000090936500A0936600B093670015C0839B31
:1001100013C08091640090916500A0916600B09139
:1001200067000196A11DB11D809364009093650046
:10013000A0936600B0936700BF91AF919F918F919C
:100140000F900FBE0F901F9018951F920F920FB631
:100150000F9211242F938F939F93EF93FF938BB163
:100160002CB18871E0916A00EF5FEF7190916900A6
:10017000E91739F0E0936A00F0E0E359FF4F20837C
:1001800001C082E080936800FF91EF919F918F9171
:100190002F910F900FBE0F901F9018951F920F92E6
:1001A0000FB60F9211248F939F93EF93FF9390912B
:1001B0006C0080916B00981761F0E0916B00EF5F2D
:1001C000EF71E0936B00F0E0E357FF4F80818CB953
:1001D00001C05598FF91EF919F918F910F900FBEA5
:1001E0000F901F90189510926C0010926B00109257
:1001F0006A001092690099231CF422E02BB99F77C2
:1002000090BD89B988E98AB986E880BD08952091B2
:100210006C002F5F2F7190916B002917E1F3E22F93
:10022000F0E0E357FF4F808320936C00559A0895C8
:10023000CF93DF93EC018881882331F021960E94CF
:10024000070189918111FBCFDF91CF9108950F9321
:100250001F93CF93DF93CDB7DEB72F970FB6F894E8
:10026000DEBF0FBECDBF4AE0BE016F5F7F4F0E9471
:1002700051018981882351F08E010E5F1F4F0E942A
:100280000701F80181918F018111F9CF2F960FB6E7
:10029000F894DEBF0FBECDBFDF91CF911F910F91BC
:1002A0000895BB274A3031F4992322F4BDE290959A
:1002B00081959F4F0C945D01BB27FB015527AA2711
:1002C000880F991FAA1FA41710F0A41B83955051E3
:1002D000B9F7A05DAA3308F0A95DA193009779F75B
:1002E000B111B1931192CB010C947601DC01FC01A8
:1002F000672F71917723E1F7329704C07C916D935A
:1003000070836291AE17BF07C8F30895F894FFCFCA
:040310000A200D00B2
:00000001FF
