S01900006C6564626C696E6B7769746874696D65722E73726563E9
S11300000C942A000C9434000C9434000C943400A6
S11300100C9434000C9434000C9434000C9434008C
S11300200C9434000C9434000C9434000C9434007C
S11300300C9434000C9434000C9434000C9434006C
S11300400C9434000C9434000C9434000C9434005C
S11300500C94340011241FBECFE5D8E0DEBFCDBF21
S11300600E9436000C944B000C940000B89A8EB594
S113007083608EBD41E02CE330E08CB59DB58830C3
S11300809D43D8F31DBC1CBC21503109B1F788B382
S10D0090842788BBF0CFF894FFCF5B
S9030000FC
