S01400006D6F746F72456E636F6465722E737265631F
S11300000C942A000C9483000C9447000C94470031
S11300100C9447000C9447000C9447000C94470040
S11300200C9447000C9449000C9447000C9447002E
S11300300C9447000C94B5000C94DE000C9447001B
S11300400C9447000C9447000C9447000C94470010
S11300500C94470011241FBECFE5D8E0DEBFCDBF0E
S113006010E0A0E6B0E0E4E3F3E002C005900D92F6
S1130070A436B107D9F720E0A4E6B0E001C01D9290
S1130080AC3AB207E1F70E949A000C9498010C94E0
S113009000001F920F920FB60F9211242F933F93DB
S11300A04F935F936F937F938F939F93AF93BF937C
S11300B0EF93FF9380916500809364009BEA899F8E
S11300C0812D112482958F702CE3829FC00111240D
S11300D00E94390180E690E00E942A011092660095
S11300E010926500FF91EF91BF91AF919F918F9115
S11300F07F916F915F914F913F912F910F900FBE20
S11301000F901F9018951F920F920FB60F92112403
S11301108F939F93809165009091660001969093D0
S11301206600809365009F918F910F900FBE0F9092
S11301301F90189587E690E00E94030185B78360BD
S113014085BF85B785BF84B784BF78948BB7806437
S11301508BBF8BB78BBF8BB78BBF8EB584608EBDC7
S113016089B7846089BF7894FFCF1F920F920FB62E
S11301700F9211242F938F939F93EF93FF938BB13F
S11301802CB18871E0916900EF5FEF719091680084
S1130190E91739F0E0936900F0E0E459FF4F208358
S11301A001C082E080936700FF91EF919F918F914E
S11301B02F910F900FBE0F901F9018951F920F92C2
S11301C00FB60F9211248F939F93EF93FF93909107
S11301D06B0080916A00981761F0E0916A00EF5F0C
S11301E0EF71E0936A00F0E0E457FF4F80818CB92F
S11301F001C05598FF91EF919F918F910F900FBE81
S11302000F901F90189510926B0010926A00109234
S113021069001092680099231CF422E02BB99F779F
S113022090BD89B988E98AB986E880BD86E080BD39
S1130230089520916B002F5F2F7190916A00291708
S1130240E1F3E22FF0E0E457FF4F808320936B004B
S1130250559A0895CF93DF93EC018881882331F078
S113026021960E94190189918111FBCFDF91CF91D1
S113027008950F931F93CF93DF93CDB7DEB72F97D6
S11302800FB6F894DEBF0FBECDBF4AE0BE016F5F6C
S11302907F4F0E9463018981882351F08E010E5F94
S11302A01F4F0E941901F80181918F018111F9CF2B
S11302B02F960FB6F894DEBF0FBECDBFDF91CF915E
S11302C01F910F910895BB274A3031F4992322F4EA
S11302D0BDE2909581959F4F0C946F01BB27FB0164
S11302E05527AA27880F991FAA1FA41710F0A41B2B
S11302F083955051B9F7A05DAA3308F0A95DA19385
S1130300009779F7B111B1931192CB010C94880144
S1130310DC01FC01672F71917723E1F7329704C068
S11303207C916D9370836291AE17BF07C8F30895F3
S1070330F894FFCF6B
S10703340A0D0000AA
S9030000FC
