:1000000012C02CC02BC02AC029C028C028C026C0BE
:1000100025C024C023C022C021C020C01FC01EC0D4
:100020001DC01CC01BC011241FBECFE5D4E0DEBF25
:10003000CDBF10E0A0E6B0E0EEE8F1E002C0059030
:100040000D92AE36B107D9F720E0AEE6B0E001C0C0
:100050001D92A037B207E1F77CD097C0D1CF1F9295
:100060000F920FB60F9211248F939F9381E090E02F
:1000700090936F0080936E00F8949F918F910F90F2
:100080000FBE0F901F901895CF93DF93CDB7DEB7BB
:100090002E970FB6F894DEBF0FBECDBF8EE0E0E620
:1000A000F0E0DE01119601900D928A95E1F7FE01D4
:1000B00031969E012F5E3F4F98B380813296892BF7
:1000C00088BB8FE39CE90197F1F700C00000E217BD
:1000D000F30791F72E960FB6F894DEBF0FBECDBF93
:1000E000DF91CF910895CF93DF93CDB7DEB72E97F1
:1000F0000FB6F894DEBF0FBECDBF1A8219821C82E4
:100100001B821E821D8218861F821A8619861C86F3
:100110001B868EE190E09E878D87FE0131969E01C1
:100120002F5E3F4F95B380813296892B85BB8FE33D
:100130009CE90197F1F700C00000E217F30791F77F
:100140002E960FB6F894DEBF0FBECDBFDF91CF91D4
:10015000089587B38FEF87BB94B384BB78948EB533
:1001600085608EBD8EB588608EBD89B7806189BF80
:100170008AE196E09BBD8ABD87DF80916E009091F9
:0E0180006F000197C9F7AFDFF7CFF894FFCFFC
:0E018E000200020002000200020002001E0039
:00000001FF
