S0120000656E636F6465724C43442E737265635F
S11300000C942A000C9451010C9447000C94470062
S11300100C9447000C9447000C9447000C94760110
S11300200C9447000C9447000C9447000C94470030
S11300300C9447000C94C0010C94E9010C94470003
S11300400C9447000C9447000C9447000C94470010
S11300500C94470011241FBECFE5D8E0DEBFCDBF0E
S113006010E0A0E6B0E0E2ECF7E002C005900D92EB
S1130070A236B107D9F720E0A2E6B0E001C01D9294
S1130080AF3AB207E1F70E940B010C94DF030C9422
S1130090000095ED9A95F1F70000882314F4DA9A9C
S11300A001C0DA9886FF02C0DB9A01C0DB9885FFA5
S11300B002C0DC9A01C0DC9884FF02C0DD9A01C052
S11300C0DD98DE9ADE9883FF02C0DA9A01C0DA98DE
S11300D082FF02C0DB9A01C0DB9881FF02C0DC9A78
S11300E001C0DC9880FF02C0DD9A01C0DD98DE9A71
S11300F0DE980895DF9881E00E9449008FE39FE134
S11301000197F1F700C000000895CF93DF93EC014D
S1130110DF9A8881882331F021960E9449008991D1
S11301208111FBCFDF91CF910895DF9A0E9449009E
S11301300895DF9880680E9449000895D79AD69A56
S1130140D29AD39AD49AD59ADF98DE988FE59AEE0C
S11301500197F1F700C00000DD9ADC9ADB98DA9889
S1130160DE9ADE988FE19EE40197F1F700C000006B
S1130170DE9ADE988FE193E00197F1F700C000006A
S1130180DE9ADE988FE193E00197F1F700C000005A
S1130190DD98DC9ADB98DA98DE9ADE9888E20E9491
S11301A049008CE00E9449000E947A0086E00E9487
S11301B0490008950F931F93CF93DF93CDB7DEB714
S11301C02F970FB6F894DEBF0FBECDBF4AE0BE0135
S11301D06F5F7F4F0E94AA038981882351F08E01AB
S11301E00E5F1F4F0E949500F80181918F018111CC
S11301F0F9CF2F960FB6F894DEBF0FBECDBFDF91B7
S1130200CF911F910F91089590E4699F800D11245F
S11302100E949900089580E881BB0E949E008EB5DB
S11302208D608EBD85B7836085BF8BB780648BBFBF
S113023089B7806189BF80E19AE79BBD8ABD7894C4
S113024062E082E00E94040162E086E00E94040110
S113025080E690E00E94850062E086E00E9404014E
S11302608091620090916300A0916400B091650058
S11302700E94DA0080E690E00E948500809166008A
S113028090916700A0916800B09169000E94DA0023
S11302908FE39CE90197F1F700C000000E947A0007
S11302A0D3CF1F920F920FB60F9211248F939F9367
S11302B0AF93BF938091660090916700A09168000E
S11302C0B09169000196A11DB11D809366009093C1
S11302D06700A0936800B0936900BF91AF919F91AC
S11302E08F910F900FBE0F901F9018951F920F9231
S11302F00FB60F9211242F933F934F935F936F93F5
S11303007F938F939F93AF93BF93EF93FF936091EA
S113031066007091670080916800909169000E9466
S1130320AF0220E030E040E752E40E943D0320E0C9
S113033030E048E453E40E940E020E94800260937D
S11303406200709363008093640090936500109240
S11303506600109267001092680010926900FF9185
S1130360EF91BF91AF919F918F917F916F915F9129
S11303704F913F912F910F900FBE0F901F901895A2
S11303801F920F920FB60F9211242F938F939F9366
S1130390EF93FF938BB12CB18871E0916C00EF5F08
S11303A0EF7190916B00E91739F0E0936C00F0E085
S11303B0E159FF4F208301C082E080936A00FF91DE
S11303C0EF919F918F912F910F900FBE0F901F90DF
S11303D018951F920F920FB60F9211248F939F932B
S11303E0EF93FF9390916E0080916D00981761F0E8
S11303F0E0916D00EF5FEF71E0936D00F0E0E15785
S1130400FF4F80818CB901C05598FF91EF919F9166
S11304108F910F900FBE0F901F9018950E9422028B
S11304200C9403030E94FC0258F00E94F50240F071
S113043029F45F3F29F00C94EC0251110C9437031A
S11304400C94F2020E94140368F39923B1F3552328
S113045091F3951B550BBB27AA27621773078407D3
S113046038F09F5F5F4F220F331F441FAA1FA9F369
S113047035D00E2E3AF0E0E832D091505040E69557
S1130480001CCAF72BD0FE2F29D0660F771F881FB8
S1130490BB1F261737074807AB07B0E809F0BB0BAB
S11304A0802DBF01FF2793585F4F3AF09E3F5105BF
S11304B078F00C94EC020C9437035F3FE4F3983E1D
S11304C0D4F3869577956795B795F7959F5FC9F7A8
S11304D0880F911D9695879597F90895E1E0660F29
S11304E0771F881FBB1F621773078407BA0720F0A2
S11304F0621B730B840BBA0BEE1F88F7E09508950B
S11305000E941C0388F09F5798F0B92F9927B75180
S1130510B0F0E1F0660F771F881F991F1AF0BA95A3
S1130520C9F714C0B13091F00E943603B1E00895C8
S11305300C943603672F782F8827B85F39F0B93FBA
S1130540CCF3869577956795B395D9F73EF4909556
S11305508095709561957F4F8F4F9F4F0895E894D4
S113056009C097FB3EF490958095709561957F4FF7
S11305708F4F9F4F9923A9F0F92F96E9BB279395A5
S1130580F695879577956795B795F111F8CFFAF4B5
S1130590BB0F11F460FF1BC06F5F7F4F8F4F9F4FE6
S11305A016C0882311F096E911C0772321F09EE844
S11305B0872F762F05C0662371F096E8862F70E0AA
S11305C060E02AF09A95660F771F881FDAF7880F84
S11305D09695879597F9089597F99F6780E870E055
S11305E060E008959FEF80EC089500240A941616A5
S11305F0170618060906089500240A94121613060D
S1130600140605060895092E0394000C11F488239A
S113061052F0BB0F40F4BF2B11F460FF04C06F5FB6
S11306207F4F8F4F9F4F089557FD9058440F551F8C
S113063059F05F3F71F04795880F97FB991F61F060
S11306409F3F79F087950895121613061406551FD7
S1130650F2CF4695F1DF08C0161617061806991F43
S1130660F1CF86957105610508940895E894BB2738
S113067066277727CB0197F908950E9450030C94BD
S113068003030E94F50238F00E94FC0220F0952337
S113069011F00C94EC020C94F20211240C94370324
S11306A00E94140370F3959FC1F3950F50E0551FFA
S11306B0629FF001729FBB27F00DB11D639FAA27B3
S11306C0F00DB11DAA1F649F6627B00DA11D661F02
S11306D0829F2227B00DA11D621F739FB00DA11D23
S11306E0621F839FA00D611D221F749F3327A00DDD
S11306F0611D231F849F600D211D822F762F6A2F79
S113070011249F5750409AF0F1F088234AF0EE0FDD
S1130710FF1FBB1F661F771F881F91505040A9F70A
S11307209E3F510580F00C94EC020C9437035F3F1C
S1130730E4F3983ED4F3869577956795B795F79546
S1130740E7959F5FC1F7FE2B880F911D96958795BE
S113075097F90895BB274A3031F4992322F4BDE276
S1130760909581959F4F0C94B603BB27FB015527A9
S1130770AA27880F991FAA1FA41710F0A41B8395FA
S11307805051B9F7A05DAA3308F0A95DA193009771
S113079079F7B111B1931192CB010C94CF03DC0121
S11307A0FC01672F71917723E1F7329704C07C91A4
S11307B06D9370836291AE17BF07C8F30895F894E0
S10507C0FFCF65
S10507C2200011
S9030000FC
