:100000000C942A000C943C000C943C000C943C0092
:100010000C943C000C943C000C943C000C94560056
:100020000C943C000C943C000C943C000C943C0060
:100030000C943C000C943C000C943C000C943C0050
:100040000C943C000C943C000C943C000C943C0040
:100050000C943C0011241FBECFE5D8E0DEBFCDBF1D
:1000600020E0A0E6B0E001C01D92A236B207E1F7A1
:100070000E9442000C9486000C94000088B38E61AC
:1000800088BB08958C9A78948EB585608EBD8EB5A8
:1000900088608EBD89B7806189BF1BBC1ABC0E9475
:1000A0003E00FDCF85B38E6185BB08951F920F92F0
:1000B0000FB60F9211242F933F934F935F936F933B
:1000C0007F938F939F93AF93BF93EF93FF93809111
:1000D00060009091610001969093610080936000B0
:1000E000843B910511F40E945200FF91EF91BF9162
:1000F000AF919F918F917F916F915F914F913F91C0
:100100002F910F900FBE0F901F901895F894FFCF6E
:00000001FF
