:1000000012C02CC012C12AC029C028C025C126C0D8
:1000100025C024C023C022C021C020C01FC01EC0D4
:100020001DC01CC01BC011241FBECFE5D4E0DEBF25
:10003000CDBF10E0A0E6B0E0E4E5F3E002C005903B
:100040000D92A636B107D9F720E0A6E6B0E001C0D0
:100050001D92AC36B207E1F7B9D07AC1D1CF95ED98
:100060009A95F1F70000882314F4929A01C09298AF
:1000700086FF02C0939A01C0939885FF02C0949AAC
:1000800001C0949884FF02C0959A01C09598969AF1
:10009000969883FF02C0929A01C0929882FF02C094
:1000A000939A01C0939881FF02C0949A01C09498DA
:1000B00080FF02C0959A01C09598969A96980895E7
:1000C000979881E0CCDF8FE39FE10197F1F700C0C3
:1000D00000000895CF93DF93EC01979A88818823DD
:1000E00029F02196BCDF89918111FCCFDF91CF915E
:1000F0000895979AB4DF089597988068B0DF0895BF
:100100008F9A8E9A8A9A8B9A8C9A8D9A97989698AB
:100110008FE59AEE0197F1F700C00000959A949A46
:1001200093989298969A96988FE19EE40197F1F7AA
:1001300000C00000969A96988FE193E00197F1F73E
:1001400000C00000969A96988FE193E00197F1F72E
:1001500000C000009598949A93989298969A9698D1
:1001600088E27DDF8CE07BDFABDF86E078DF08951F
:100170000F931F93CF93DF93CDB7DEB72F970FB6B3
:10018000F894DEBF0FBECDBF4AE0BE016F5F7F4F68
:10019000ACD08981882349F08E010E5F1F4FA9DF03
:1001A000F80181918F018111FACF2F960FB6F89443
:1001B000DEBF0FBECDBFDF91CF911F910F9108958C
:1001C00090E4699F800D112497DF089599DF78945A
:1001D0008EB585608EBD8EB588608EBD89B788600E
:1001E00089BF89E09DE39BBD8ABD85B7836085BFDC
:1001F0008BB780688BBF80916A0090916B00609193
:100200006800709169005DD02CE3269FC001279F94
:10021000900D1124909367008093660061E085E063
:10022000CFDF80E690E056DFFFCF1F920F920FB630
:100230000F9211248F939F9380916A0090916B008D
:10024000019690936B0080936A009F918F910F901D
:100250000FBE0F901F9018951F920F920FB60F921E
:1002600011242F933F934F935F936F937F938F93BB
:100270009F93AF93BF93EF93FF938091680090910A
:10028000690001969093690080936800CC9741F4CF
:1002900062E087E095DF809166009091670068DFFB
:1002A000FF91EF91BF91AF919F918F917F916F914E
:1002B0005F914F913F912F910F900FBE0F901F9024
:1002C0001895AA1BBB1B51E107C0AA1FBB1FA6178D
:1002D000B70710F0A61BB70B881F991F5A95A9F7EF
:1002E00080959095BC01CD010895BB274A3031F42B
:1002F000992322F4BDE2909581959F4F01C0BB27C1
:10030000FB015527AA27880F991FAA1FA41710F0D1
:10031000A41B83955051B9F7A05DAA3308F0A95DDD
:10032000A193009779F7B111B1931192CB0100C05D
:10033000DC01FC01672F71917723E1F7329704C04C
:100340007C916D9370836291AE17BF07C8F30895D7
:04035000F894FFCF4F
:0603540052504D3A00007A
:00000001FF
