:100000000C942A000C9447000C9404010C944700B3
:100010000C94D7000C9447000C9447000C944700B4
:100020000C9447000C9447000C9447000C94470034
:100030000C9447000C9447000C9447000C94470024
:100040000C9447000C9447000C9447000C94470014
:100050000C94470011241FBECFE5D8E0DEBFCDBF12
:1000600010E0A0E6B0E0E4E7F4E002C005900D92F5
:10007000AC36B107D9F720E0ACE6B0E001C01D9284
:10008000AC37B207E1F70E94F5010C9438020C94EA
:10009000000080916E0090916F00019690936F0028
:1000A00080936E00892B49F08091780090917900BF
:1000B00001969093790080937800809178009091D8
:1000C0007900CC976CF010927900109278008091B2
:1000D0007600909177000196909377008093760058
:1000E0008091760090917700CC976CF01092770019
:1000F0001092760080917A0090917B000196909307
:100100007B0080937A0080917A0090917B000D971C
:1001100034F081E090E090937B0080937A00089522
:1001200080916C0090916D00019690936D0080938A
:100130006C00892B49F080917200909173000196B8
:10014000909373008093720080917200909173007D
:10015000CC976CF010927300109272008091760030
:10016000909177000196909377008093760080912C
:10017000740090917500CC976CF0109275001092FD
:1001800074008091700090917100019690937100BD
:100190008093700080917000909171000D9734F001
:1001A00081E090E0909371008093700008951F9219
:1001B0000F920FB60F9211242F933F934F935F939B
:1001C0006F937F938F939F93AF93BF93EF93FF931F
:1001D00080916000882319F00E94490004C00E94A9
:1001E00049000E949000FF91EF91BF91AF919F91C4
:1001F0008F917F916F915F914F913F912F910F90D0
:100200000FBE0F901F9018951F920F920FB60F926E
:1002100011242F933F934F935F936F937F938F930B
:100220009F93AF93BF93EF93FF93809160008823D8
:1002300019F00E94490004C00E9449000E949000E9
:10024000FF91EF91BF91AF919F918F917F916F91AE
:100250005F914F913F912F910F900FBE0F901F9084
:10026000189580917A0090917B008A309105A4F4D2
:10027000FC01EF59FF4F808188BBD9988FE19EE444
:100280000197F1F700C00000D99A80917A0090910F
:100290007B008A30910534F12AE030E0B9010E94F8
:1002A0001002FB01EF59FF4F808188BBD8988FE186
:1002B0009EE40197F1F700C00000D89A80917A007F
:1002C00090917B00B9010E941002FC01EF59FF4F91
:1002D000808188BBD9988FE19EE40197F1F700C037
:1002E0000000D99A80917600909177008A3091052C
:1002F000A4F4FC01EF59FF4F808188BBDB988FE1AC
:100300009EE40197F1F700C00000DB9A809176002F
:10031000909177008A30910534F12AE030E0B901FC
:100320000E941002FB01EF59FF4F808188BBDA98D1
:100330008FE19EE40197F1F700C00000DA9A809106
:10034000760090917700B9010E941002FC01EF59EC
:10035000FF4F808188BBDB988FE19EE40197F1F726
:1003600000C00000DB9A80917800909179008A307B
:100370009105A4F4FC01EF59FF4F808188BBDD9803
:100380008FE19EE40197F1F700C00000DD9A8091B3
:100390007800909179008A30910534F12AE030E0BC
:1003A000B9010E941002FB01EF59FF4F808188BB09
:1003B000DC988FE19EE40197F1F700C00000DC9A21
:1003C0008091780090917900B9010E941002FC019F
:1003D000EF59FF4F808188BBDD988FE19EE4019744
:1003E000F1F700C00000DD9A08958FE085BD8CE92B
:1003F00083BD80E889BF78948BB7806C8BBF11BABE
:100400008FEF8ABB87BB18BA8FE38BBB80916000EC
:10041000882319F00E943101F9CF0E949000F6CF95
:1004200097FB072E16F4009407D077FD09D00E94A1
:10043000240207FC05D03EF4909581959F4F0895C6
:10044000709561957F4F0895AA1BBB1B51E107C0B2
:10045000AA1FBB1FA617B70710F0A61BB70B881F54
:10046000991F5A95A9F780959095BC01CD010895E3
:04047000F894FFCF2E
:0C047400013F065B4F666D7D077F6F0047
:00000001FF
