:100000002CC03EC03DC03CC03BC03AC039C038C027
:1000100037C036C035C034C033C032C031C030C044
:100020002FC02EC02DC080C095C0B3C0D1C0EFC0BE
:100030000DC12BC149C167C185C1A3C1C1C1DFC108
:10004000FDC11BC239C257C275C293C2B1C2CFC271
:10005000EDC20BC329C347C365C311241FBECFE53F
:10006000D4E0DEBFCDBF13E0A0E6B0E0E4E7F7E008
:1000700002C005900D92A833B107D9F702D078C31A
:10008000BFCF61E081E438D085E01FD061E084E437
:1000900033D085E01AD061E081E42ED085E015D020
:1000A00061E080E529D085E010D061E08DE424D0C6
:1000B00085E00BD061E081E41FD085E006D061E0EF
:1000C00083E51AD085E001D0DCCF18BA15BA2FEF3E
:1000D00089EF90E0215080409040E1F700C000009F
:1000E0000895882341F0EFE9FFE03197F1F700C070
:1000F00000008150C1F70895CF92DF92EF92FF92F6
:100100000F931F93CF93E82F8FEF87BB84BB8E2F66
:1001100090E0FC01E154F109EA31F10508F020C357
:10012000C62FED5EFF4F0994EAE2F3E0ACE1B3E0E5
:1001300028E333E08081329688BB8C91129685BB90
:100140008FE39FE10197F1F700C000002E173F07F2
:1001500089F706C30EE013E00F2EF0E0EF2EF3E078
:10016000FF2EF02D0F2EFCE1CF2EF3E0DF2EF02D31
:10017000F80180810E5F1F4F88BBF7018081F2E09C
:10018000EF0EF11C85BB8C2FACDF0C151D0581F724
:10019000E7C202EF12E00F2EF4EEEF2EF2E0FF2E98
:1001A000F02D0F2EF0E0CF2EF3E0DF2EF02DF80132
:1001B00080810E5F1F4F88BBF7018081F2E0EF0E58
:1001C000F11C85BB8C2F8DDFC016D10681F7C8C20C
:1001D00006ED12E00F2EF8ECEF2EF2E0FF2EF02DE0
:1001E0000F2EF4EECF2EF2E0DF2EF02DF8018081FD
:1001F0000E5F1F4F88BBF7018081F2E0EF0EF11C0C
:1002000085BB8C2F6EDF0C151D0581F7A9C20AEB8B
:1002100012E00F2EFCEAEF2EF2E0FF2EF02D0F2E53
:10022000F8ECCF2EF2E0DF2EF02DF80180810E5F8A
:100230001F4F88BBF7018081F2E0EF0EF11C85BBF8
:100240008C2F4FDFC016D10681F78AC20EE912E06B
:100250000F2EF0E9EF2EF2E0FF2EF02D0F2EFCEA2C
:10026000CF2EF2E0DF2EF02DF80180810E5F1F4FC0
:1002700088BBF7018081F2E0EF0EF11C85BB8C2F6B
:1002800030DF0C151D0581F76BC202E812E00F2E5E
:10029000F4E7EF2EF2E0FF2EF02D0F2EF0E9CF2E37
:1002A000F2E0DF2EF02DF80180810E5F1F4F88BB3A
:1002B000F7018081F2E0EF0EF11C85BB8C2F11DF7E
:1002C000C016D10681F74CC206E612E00F2EF8E503
:1002D000EF2EF2E0FF2EF02D0F2EF4E7CF2EF2E0FE
:1002E000DF2EF02DF80180810E5F1F4F88BBF701D4
:1002F0008081F2E0EF0EF11C85BB8C2FF2DE0C1535
:100300001D0581F72DC20AE412E00F2EFCE3EF2E4B
:10031000F2E0FF2EF02D0F2EF8E5CF2EF2E0DF2ECB
:10032000F02DF80180810E5F1F4F88BBF70180819F
:10033000F2E0EF0EF11C85BB8C2FD3DEC016D10688
:1003400081F70EC20EE212E00F2EF0E2EF2EF2E085
:10035000FF2EF02D0F2EFCE3CF2EF2E0DF2EF02D3E
:10036000F80180810E5F1F4F88BBF7018081F2E0AA
:10037000EF0EF11C85BB8C2FB4DE0C151D0581F72B
:10038000EFC102E112E00F2EF4E0EF2EF2E0FF2EBB
:10039000F02D0F2EF0E2CF2EF2E0DF2EF02DF8013F
:1003A00080810E5F1F4F88BBF7018081F2E0EF0E66
:1003B000F11C85BB8C2F95DEC016D10681F7D0C10C
:1003C00006EF11E00F2EF8EEEF2EF1E0FF2EF02DEC
:1003D0000F2EF4E0CF2EF2E0DF2EF02DF801808119
:1003E0000E5F1F4F88BBF7018081F2E0EF0EF11C1A
:1003F00085BB8C2F76DE0C151D0581F7B1C10AED8A
:1004000011E00F2EFCECEF2EF1E0FF2EF02D0F2E61
:10041000F8EECF2EF1E0DF2EF02DF80180810E5F97
:100420001F4F88BBF7018081F2E0EF0EF11C85BB06
:100430008C2F57DEC016D10681F792C10EEB11E06A
:100440000F2EF0EBEF2EF1E0FF2EF02D0F2EFCEC37
:10045000CF2EF1E0DF2EF02DF80180810E5F1F4FCF
:1004600088BBF7018081F2E0EF0EF11C85BB8C2F79
:1004700038DE0C151D0581F773C102EA11E00F2E5D
:10048000F4E9EF2EF1E0FF2EF02D0F2EF0EBCF2E42
:10049000F1E0DF2EF02DF80180810E5F1F4F88BB49
:1004A000F7018081F2E0EF0EF11C85BB8C2F19DE85
:1004B000C016D10681F754C106E811E00F2EF8E707
:1004C000EF2EF1E0FF2EF02D0F2EF4E9CF2EF1E00C
:1004D000DF2EF02DF80180810E5F1F4F88BBF701E2
:1004E0008081F2E0EF0EF11C85BB8C2FFADD0C153C
:1004F0001D0581F735C10AE611E00F2EFCE5EF2E50
:10050000F1E0FF2EF02D0F2EF8E7CF2EF1E0DF2ED9
:10051000F02DF80180810E5F1F4F88BBF7018081AD
:10052000F2E0EF0EF11C85BB8C2FDBDD0C151D05F9
:1005300081F716C10EE411E00F2EF0E4EF2EF1E08A
:10054000FF2EF02D0F2EFCE5CF2EF1E0DF2EF02D4B
:10055000F80180810E5F1F4F88BBF7018081F2E0B8
:10056000EF0EF11C85BB8C2FBCDD0C151D0581F732
:10057000F7C002E311E00F2EF4E2EF2EF1E0FF2EC0
:10058000F02D0F2EF0E4CF2EF1E0DF2EF02DF8014C
:1005900080810E5F1F4F88BBF7018081F2E0EF0E74
:1005A000F11C85BB8C2F9DDD0C151D0581F7D8C076
:1005B00006E111E00F2EF8E0EF2EF1E0FF2EF02D16
:1005C0000F2EF4E2CF2EF1E0DF2EF02DF801808126
:1005D0000E5F1F4F88BBF7018081F2E0EF0EF11C28
:1005E00085BB8C2F7EDD0C151D0581F7B9C00AEF88
:1005F00010E00F2EFCEEEF2EF0E0FF2EF02D0F2E70
:10060000F8E0CF2EF1E0DF2EF02DF80180810E5FB3
:100610001F4F88BBF7018081F2E0EF0EF11C85BB14
:100620008C2F5FDD0C151D0581F79AC00EED10E0D3
:100630000F2EF0EDEF2EF0E0FF2EF02D0F2EFCEE42
:10064000CF2EF0E0DF2EF02DF80180810E5F1F4FDE
:1006500088BBF7018081F2E0EF0EF11C85BB8C2F87
:1006600040DD0C151D0581F77BC002EC10E00F2E5C
:10067000F4EBEF2EF0E0FF2EF02D0F2EF0EDCF2E4D
:10068000F0E0DF2EF02DF80180810E5F1F4F88BB58
:10069000F7018081F2E0EF0EF11C85BB8C2F21DD8C
:1006A0000C151D0581F75CC006EA10E00F2EF8E975
:1006B000EF2EF0E0FF2EF02D0F2EF4EBCF2EF0E01A
:1006C000DF2EF02DF80180810E5F1F4F88BBF701F0
:1006D0008081F2E0EF0EF11C85BB8C2F02DD0C1542
:1006E0001D0581F73DC00AE810E00F2EFCE7EF2E54
:1006F000F0E0FF2EF02D0F2EF8E9CF2EF0E0DF2EE8
:10070000F02DF80180810E5F1F4F88BBF7018081BB
:10071000F2E0EF0EF11C85BB8C2FE3DC0C151D0500
:1007200081F71EC00EE610E00F2EF0E6EF2EF0E08F
:10073000FF2EF02D0F2EFCE7CF2EF0E0DF2EF02D58
:10074000F80180810E5F1F4F88BBF7018081F2E0C6
:10075000EF0EF11C85BB8C2FC4DC0C151D0581F739
:10076000CF911F910F91FF90EF90DF90CF90089560
:04077000F894FFCF2B
:1007740006000A000A001200020002000200020041
:1007840002000200020012000A000600060008002F
:100794001000100010000800060000000000000017
:1007A4001E00000000000000020004000800100009
:1007B40008000400020006000800100000001000F9
:1007C400080006001E0000000000000000000000F9
:1007D4001E001E00040008001000080004001E0093
:1007E40006001800000000000000180006000000C9
:1007F40000001C0006001C00000000001E00000099
:1008040000000000000000001E00180004000200A8
:1008140002000200040018000600060006001E0084
:100824000600060006000000000000001E00000094
:100834000000000002001200120012001200140056
:1008440008001C0002000200020002000200020074
:100854000C0012001200120012001E001E000600FE
:1008640004000800100000001E001E001800020012
:10087400020002000200040018001A0004000A002A
:1008840012000200040018000C00120012001200F2
:1008940012001E001E000000000000000000000006
:1008A4001E001E00180004000200020002000400E2
:1008B40018001800040002000200020004001800DE
:1008C4001E00000000001000080006001E001E00AC
:1008D4000E0010000000000000001E001E000400B6
:1008E40008001000080004001E001E0000000000A4
:1008F4000000000000001E000000000000000000D6
:1009040000001E001E00020002000200020002009D
:100914001E001E00020002000400080010001E0059
:100924001E00040002000400080010001E001E0047
:100934000200020002001E00020002000200000089
:10094400000000001C00020002000400020002007B
:1009540002001E0002000200020002000200020067
:100964001E000200020002001E001E001000100003
:1009740010001E001E001E001E00100010001000BB
:100984001E001E0004000200020002000200040017
:1009940018001E00120012000200020004001800D9
:1009A400060006000600060006001E001E001000D9
:1009B40010001000100010001E001E001200120093
:1009C4001200120012001E001E001200120012007B
:1009D400120012001E001E00180004000200020093
:1009E40002001E001E0018000400020002000200A3
:1009F4001E001E00020002000200020002000400A9
:100A040018000200020002000200020004001800A4
:100A14000C000C000C000C000C000C001E000C0060
:100A2400120012001200120012001E001E0012001A
:100A340012001200120012001E001E00000000002E
:080A44000000000000001E008C
:00000001FF
