S01700006D6F746572456E636F6465725F43492E737265633B
S11300000C942A000C9489000C9447000C9447002B
S11300100C9447000C9447000C9447000C94C600C1
S11300200C9447000C9447000C9447000C94470030
S11300300C9447000C942C010C9455010C9447002B
S11300400C9447000C9447000C9447000C94470010
S11300500C94470011241FBECFE5D8E0DEBFCDBF0E
S113006010E0A0E6B0E0E2E6F7E002C005900D92F1
S1130070A236B107D9F720E0A2E6B0E001C01D9294
S1130080A33BB207E1F70E9449000C94AF030C9420
S1130090000080E881BB8FEF84BBAA9A87E690E0DA
S11300A00E947A018EB58D608EBD85B7836085BF51
S11300B08BB780648BBF89B7806189BF84E89EE178
S11300C09BBD8ABD789485B5876085BD85B5806400
S11300D085BD85B5806385BD8FE383BDC1E716E02B
S11300E0D5E009C00E949001C82F0E94AB0180E6B0
S11300F090E00E94BC010E94CB01892B99F79C2FB0
S11301009F7D963411F4D5BBF6CF9234A1F715BB7D
S1130110F2CF1F920F920FB60F9211248F939F93D9
S1130120AF93BF93839914C080916A0090916B0040
S1130130A0916C00B0916D000197A109B109809361
S11301406A0090936B00A0936C00B0936D0015C08F
S1130150839B13C080916A0090916B00A0916C0006
S1130160B0916D000196A11DB11D80936A0090931A
S11301706B00A0936C00B0936D00BF91AF919F9101
S11301808F910F900FBE0F901F9018951F920F9292
S11301900FB60F9211242F933F934F935F936F9356
S11301A07F938F939F93AF93BF93EF93FF9360914C
S11301B06A0070916B0080916C0090916D000E94B8
S11301C0AC0220E030E040E451E40E9402020E94CC
S11301D07402609362007093630080936400909350
S11301E06500209162003091630040916400509159
S11301F06500ACE3B0E00E944C036093660070932A
S113020067008093680090936900809166009091E4
S11302106700A0916800B09169000E94D80180E64F
S113022090E00E94BC0110926A0010926B00109240
S11302306C0010926D00FF91EF91BF91AF919F916F
S11302408F917F916F915F914F913F912F910F907B
S11302500FBE0F901F9018951F920F920FB60F921A
S113026011242F938F939F93EF93FF938BB12CB112
S11302708871E0917000EF5FEF7190916F00E91762
S113028039F0E0937000F0E0ED58FF4F208301C097
S113029082E080936E00FF91EF919F918F912F9157
S11302A00F900FBE0F901F9018951F920F920FB6CC
S11302B00F9211248F939F93EF93FF939091720069
S11302C080917100981761F0E0917100EF5FEF7118
S11302D0E0937100F0E0ED56FF4F80818CB901C0CE
S11302E05598FF91EF919F918F910F900FBE0F90B2
S11302F01F90189510927200109271001092700065
S113030010926F0099231CF422E02BB99F7790BDC3
S113031089B988E98AB986E880BD86E080BD0895F8
S11303209091700080916F00981791F0E0916F00A8
S1130330EF5FEF71E0936F00F0E0ED58FF4F208125
S113034080916E0090E0982F8827820F911D089568
S113035080E091E00895209172002F5F2F719091B9
S113036071002917E1F3E22FF0E0ED56FF4F80838F
S113037020937200559A0895CF93DF93EC018881FE
S1130380882331F021960E94AB0189918111FBCF22
S1130390DF91CF9108958091700020916F0090E0DB
S11303A04F96821B91096FE170E00E943803089513
S11303B00F931F93CF93DF93CDB7DEB72F970FB66D
S11303C0F894DEBF0FBECDBF4AE0BE016F5F7F4F22
S11303D00E947A038981882351F08E010E5F1F4F9A
S11303E00E94AB01F80181918F018111F9CF2F9601
S11303F00FB6F894DEBF0FBECDBFDF91CF911F9132
S11304000F9108950E9416020C94FE020E94F702B6
S113041058F00E94F00240F029F45F3F29F00C9458
S1130420E70251110C9432030C94ED020E940F0365
S113043068F39923B1F3552391F3951B550BBB270F
S1130440AA2762177307840738F09F5F5F4F220F54
S1130450331F441FAA1FA9F335D00E2E3AF0E0E84B
S113046032D091505040E695001CCAF72BD0FE2F95
S113047029D0660F771F881FBB1F26173707480729
S1130480AB07B0E809F0BB0B802DBF01FF279358E1
S11304905F4F3AF09E3F510578F00C94E7020C94BC
S11304A032035F3FE4F3983ED4F3869577956795DE
S11304B0B795F7959F5FC9F7880F911D9695879516
S11304C097F90895E1E0660F771F881FBB1F621735
S11304D073078407BA0720F0621B730B840BBA0BF3
S11304E0EE1F88F7E09508950E947B026894B1118D
S11304F00C94320308950E94170388F09F5798F0D4
S1130500B92F9927B751B0F0E1F0660F771F881F14
S1130510991F1AF0BA95C9F714C0B13091F00E942E
S11305203103B1E008950C943103672F782F8827A5
S1130530B85F39F0B93FCCF3869577956795B39555
S1130540D9F73EF490958095709561957F4F8F4FC4
S11305509F4F0895E89409C097FB3EF490958095C9
S1130560709561957F4F8F4F9F4F9923A9F0F92F75
S113057096E9BB279395F695879577956795B795F3
S1130580F111F8CFFAF4BB0F11F460FF1BC06F5FD9
S11305907F4F8F4F9F4F16C0882311F096E911C0EB
S11305A0772321F09EE8872F762F05C0662371F00C
S11305B096E8862F70E060E02AF09A95660F771F20
S11305C0881FDAF7880F9695879597F9089597F914
S11305D09F6780E870E060E008959FEF80EC0895E5
S11305E000240A941616170618060906089500240E
S11305F00A9412161306140605060895092E039488
S1130600000C11F4882352F0BB0F40F4BF2B11F4FB
S113061060FF04C06F5F7F4F8F4F9F4F089557FD5A
S11306209058440F551F59F05F3F71F04795880F5C
S113063097FB991F61F09F3F79F0879508951216F3
S113064013061406551FF2CF4695F1DF08C016169F
S113065017061806991FF1CF869571056105089450
S11306600895E894BB2766277727CB0197F9089567
S113067097FB072E16F4009407D077FD09D00E944B
S1130680570307FC05D03EF4909581959F4F08953C
S1130690709561957F4F08950E946B03A59F900DFF
S11306A0B49F900DA49F800D911D11240895AA1B41
S11306B0BB1B51E107C0AA1FBB1FA617B70710F049
S11306C0A61BB70B881F991F5A95A9F7809590957B
S11306D0BC01CD010895A29FB001B39FC001A39FA7
S11306E0700D811D1124911DB29F700D811D112467
S11306F0911D0895BB274A3031F4992322F4BDE2B9
S1130700909581959F4F0C948603BB27FB01552739
S1130710AA27880F991FAA1FA41710F0A41B83955A
S11307205051B9F7A05DAA3308F0A95DA1930097D1
S113073079F7B111B1931192CB010C949F03DC01B1
S1130740FC01672F71917723E1F7329704C07C9104
S11307506D9370836291AE17BF07C8F30895F89440
S1050760FFCFC5
S10507620D0084
S9030000FC
