S01500006D6F746F72656E636F646572332E73726563CB
S11300000C942A000C9447000C9447000C9447006D
S11300100C9447000C9447000C9447000C94470040
S11300200C9447000C9447000C9447000C94470030
S11300300C9447000C9452000C947B000C944700E1
S11300400C9447000C9447000C9447000C94470010
S11300500C94470011241FBECFE5D8E0DEBFCDBF0E
S113006010E0A0E6B0E0E0EBF1E002C005900D92F4
S1130070AE36B107D9F720E0AEE6B0E001C01D927C
S1130080A33BB207E1F70E9449000C94D6000C94FC
S1130090000087E690E00E94A00080E690E00E94C5
S11300A0C700FFCF1F920F920FB60F9211242F9308
S11300B08F939F93EF93FF938BB12CB18871E09151
S11300C07000EF5FEF7190916F00E91739F0E093E2
S11300D07000F0E0ED58FF4F208301C082E0809370
S11300E06E00FF91EF919F918F912F910F900FBE12
S11300F00F901F9018951F920F920FB60F92112414
S11301008F939F93EF93FF9390917200809171006E
S1130110981761F0E0917100EF5FEF71E093710067
S1130120F0E0ED56FF4F80818CB901C05598FF91E6
S1130130EF919F918F910F900FBE0F901F90189584
S113014010927200109271001092700010926F0061
S113015099231CF422E02BB99F7790BD89B988E9D3
S11301608AB986E880BD86E080BD0895209172003A
S11301702F5F2F71909171002917E1F3E22FF0E0C6
S1130180ED56FF4F808320937200559A0895CF93C4
S1130190DF93EC018881882331F021960E94B60018
S11301A089918111FBCFDF91CF910895F894FFCF0E
S11101B04D4F544F52454E434F4445520000AC
S9030000FC
